:04000000D3EF00F04A
:10000800FACF06F0FBCF07F0E9CF08F0EACF09F006
:10001800E1CF0AF0E2CF0BF0D9CF0CF0DACF0DF038
:10002800F3CF0EF0F4CF0FF0F6CF10F0F7CF11F0BA
:10003800F8CF12F0F5CF13F0F2A45BD0000E026EE9
:10004800500E016E23EC03F0374A382A3FA229D01C
:10005800000E81B0010E426E050E416416D042C0FA
:1000680001F0026A84EC02F03850300A080ED8B465
:100078003718D8A43DD0F29A3F92000E386E000E81
:10008800376E000E416E3F8433D0000E386E000E7E
:10009800376E4204D8A402D0412A2AD0000E416EFD
:1000A80027D03FA625D05DEC02F001460146014667
:1000B8008A500118F70B01188A6E3850300A080E5A
:1000C800D8B43718D8A414D03B4A3C2A020E3B5C5B
:1000D800000E3C58D8A006D0F29A3F96000E3C6E0F
:1000E800000E3B6E000E386E000E376E59EC03F0B2
:1000F800F29413C0F5FF12C0F8FF11C0F7FF10C04B
:10010800F6FF0FC0F4FF0EC0F3FF0DC0DAFF0CC0FE
:10011800D9FF0BC0E2FF0AC0E1FF09C0EAFF08C02F
:10012800E9FF07C0FBFF06C0FAFF1100FACF14F081
:10013800FBCF15F0E9CF16F0EACF17F0E1CF18F0B2
:10014800E2CF19F0D9CF1AF0DACF1BF0F3CF1CF0B9
:10015800F4CF1DF0F6CF1EF0F7CF1FF0F8CF20F048
:10016800F5CF21F021C0F5FF20C0F8FF1FC0F7FF31
:100178001EC0F6FF1DC0F4FF1CC0F3FF1BC0DAFF52
:100188001AC0D9FF19C0E2FF18C0E1FF17C0EAFF83
:1001980016C0E9FF15C0FBFF14C0FAFF1100D8EF25
:1001A80002F09EBA05D0000E246E000E236E1200D7
:1001B8000BEC03F023C0D9FF24C0DAFFDF6E23C0A5
:1001C800D9FF24C0DAFFDF50EE0AD8B405D0000EFC
:1001D800246E000E236E1200F29A9EAAFED70BEC34
:1001E80003F023C0D9FF24C0DAFFDF6E9EAAFED732
:1001F8000BEC03F0256E266A20EE01F02350D92679
:100208002450DA2225C0DEFF26C0DDFF20EE01F0F3
:100218002350D9262450DA22DECF25F0DDCF26F070
:1002280025C026F0256A20EE01F02350D926245057
:10023800DA2225C0DEFF26C0DDFF9EAAFED720EE0B
:1002480001F02350D9262450DA220BEC03F0256E56
:100258002550DE26000EDD2220EE03F02350D9269D
:100268002450DA22DECF29F0DDCF2AF0000E286EE6
:10027800000E276E0DD09EAAFED70BEC03F029C006
:10028800D9FF2AC0DAFFDF6E294A2A2A274A282AF4
:1002980020EE01F02350D9262450DA22DECF25F0B3
:1002A800DDCF26F02550275C26502858D8A0E3D764
:1002B800000E246E010E236E1200000E316E000E29
:1002C800306E78EC03F0FBEC02F066EC03F044ECE3
:1002D80003F02CEC03F06BEC03F0C2EC02F070ECD2
:1002E80003F022C035F023C036F019D0304A312A45
:1002F8003FA411D070EC03F022C035F023C036F0D3
:10030800060E346E010E336E000E246E320E236E0E
:10031800D9EC01F03F9431503010D8B48A78000EEF
:10032800246E320E236ED5EC00F024502310D8B47E
:10033800DDD7F29A75EC03F03204D8A409D0010E87
:10034800326E000E236E330E226E60EC03F0E7D798
:100358003250020AD8A40FD0A9EC02F0020E326E75
:10036800000E346E000E336E000E246E320E236EB5
:10037800D9EC01F0D4D73250030AD8A409D0040E1E
:10038800326E000E246E320E236ED9EC01F0C7D700
:10039800F00E326E000E346E000E336E000E246EB8
:1003A800320E236ED9EC01F0BAD7ACA2FED7EE0E0E
:1003B8001AEC03F0ACA2FED723C0D9FF24C0DAFFA1
:1003C800DF501AEC03F0ACA2FED720EE01F0235068
:1003D800D9262450DA22DECF25F0DDCF26F026C03C
:1003E80025F0266A25501AEC03F0ACA2FED720EEC1
:1003F80001F02350D9262450DA22DF501AEC03F0FA
:1004080020EE03F02350D9262450DA22DECF29F03B
:10041800DDCF2AF0000E286E000E276E0DD0ACA29C
:10042800FED729C0D9FF2AC0DAFFDF501AEC03F043
:10043800274A282A294A2A2A20EE01F02350D926B9
:100448002450DA22DECF25F0DDCF26F02550275CB8
:1004580026502858D8B01200E2D7276E000EAC6E8E
:10046800000EAB6E27B0AC8827A202D0AC8CAB8C48
:1004780027B4AC8E27A602D0AB8801D0AB8A27B8A8
:10048800AC8427BAAB8627AC02D09D8A01D09D9A4E
:1004980027AE02D09D8801D09D9822C0AFFF23C00F
:1004A80024F024C025F0266A2550B06EAC8AAB8EA5
:1004B800120039C0D9FF3AC0DAFFDF504314036E87
:1004C8000350046E056A4304D8A405D0800E436E19
:1004D800394A3A2A03D0D8904330436E0550800AEF
:1004E800800F010ED8B4045CD8A005D0000E026EAF
:1004F800010E016E1200000E026E000E016E120057
:1005080002500110D8B407D03DC0D9FF3EC0DAFF71
:100518004450DF120ED03DC0D9FF3EC0DAFFDF5095
:10052800036E4450FF0A03143DC0D9FF3EC0DAFFF2
:10053800DF6E4404D8A405D0800E446E3D4A3E2A9E
:100548001200D8904430446E12008A84C00E34ECF5
:1005580003F052EC03F03F868A96F28A3FB6FED744
:100568008A968A94C00E3CEC03F08A92C00E3CEC4A
:1005780003F08A82600E34EC03F012008A968A82B5
:10058800600E3CEC03F08A84600E34EC03F08A942D
:10059800C00E3CEC03F08A92600E34EC03F08A82C1
:1005A800600E34EC03F0120001EEFFF016EE01F0DD
:1005B800EE6AE550E150FCE1E250FAE100EE37F076
:1005C8000E0EEE6AE806FDE1000161EF01F0226E11
:1005D80022507F0BD56E000ED76E000ED66EF294A9
:1005E80022AE02D0F28A01D0F29AD58E1200F18E94
:1005F800C2909D96989E0F015D9D0F015D9F0F0112
:100608005C97939893809392939493961200F20E2A
:100618004016ABAC03D04090ABB04080ABB4408444
:10062800ABB24086AECF22F022501200226EACACA4
:1006380003D0AC9040B2AC8022C0ADFF120001C024
:1006480003F002C004F004C0D7FF03C0D6FF1200B5
:10065800000E236E100E226E3C0E31EC02F01200DA
:10066800226EFA0E00F0E82EFDD7222EFAD71200DD
:10067800226E210EE82EFED700F0222EFAD71200A5
:10068800F29AF2944F0EEBEC02F0F2941200010E83
:10069800446E010E3E6EFF0E3D6E1200010E436E5B
:1006A800010E3A6EFF0E396E1200010E436E010EF6
:1006B8003A6EFF0E396E12006BEC03F03F828A9699
:1006C800F28A1200D08EF28EF28CF184120052EC73
:1006D80003F04BEC03F01200010E236EFF0E226EA6
:0C06E80012003F983F901200D38E1200C9
:020000040020DA
:08000000FFFFFFFFFFFFFFFF00
:020000040030CA
:0E00000022035F3CFF9185FF03C003E0034035
:00000001FF
